{
  "contractName": "Credential",
  "abi": [
    {
      "anonymous": false,
      "inputs": [
        {
          "indexed": false,
          "internalType": "address",
          "name": "candidate",
          "type": "address"
        }
      ],
      "name": "candidateListed",
      "type": "event"
    },
    {
      "anonymous": false,
      "inputs": [
        {
          "indexed": false,
          "internalType": "uint256",
          "name": "claimId",
          "type": "uint256"
        },
        {
          "indexed": false,
          "internalType": "address",
          "name": "verifier",
          "type": "address"
        }
      ],
      "name": "claimCreated",
      "type": "event"
    },
    {
      "anonymous": false,
      "inputs": [
        {
          "indexed": false,
          "internalType": "address",
          "name": "institution",
          "type": "address"
        }
      ],
      "name": "institutionListed",
      "type": "event"
    },
    {
      "constant": true,
      "inputs": [
        {
          "internalType": "address",
          "name": "",
          "type": "address"
        }
      ],
      "name": "candidate_pool",
      "outputs": [
        {
          "internalType": "bool",
          "name": "",
          "type": "bool"
        }
      ],
      "payable": false,
      "stateMutability": "view",
      "type": "function"
    },
    {
      "constant": true,
      "inputs": [
        {
          "internalType": "uint256",
          "name": "",
          "type": "uint256"
        }
      ],
      "name": "claim_records",
      "outputs": [
        {
          "internalType": "address",
          "name": "candidate",
          "type": "address"
        },
        {
          "internalType": "address",
          "name": "verifier",
          "type": "address"
        },
        {
          "internalType": "int256",
          "name": "score",
          "type": "int256"
        },
        {
          "internalType": "uint256",
          "name": "id",
          "type": "uint256"
        },
        {
          "internalType": "string",
          "name": "content",
          "type": "string"
        },
        {
          "internalType": "uint8",
          "name": "status",
          "type": "uint8"
        }
      ],
      "payable": false,
      "stateMutability": "view",
      "type": "function"
    },
    {
      "constant": true,
      "inputs": [
        {
          "internalType": "address",
          "name": "",
          "type": "address"
        }
      ],
      "name": "institution_pool",
      "outputs": [
        {
          "internalType": "bool",
          "name": "",
          "type": "bool"
        }
      ],
      "payable": false,
      "stateMutability": "view",
      "type": "function"
    },
    {
      "constant": true,
      "inputs": [
        {
          "internalType": "address",
          "name": "_check",
          "type": "address"
        }
      ],
      "name": "recordExists",
      "outputs": [
        {
          "internalType": "bool",
          "name": "",
          "type": "bool"
        }
      ],
      "payable": false,
      "stateMutability": "view",
      "type": "function"
    },
    {
      "constant": false,
      "inputs": [
        {
          "internalType": "address",
          "name": "candidate",
          "type": "address"
        }
      ],
      "name": "listCandidate",
      "outputs": [],
      "payable": false,
      "stateMutability": "nonpayable",
      "type": "function"
    },
    {
      "constant": false,
      "inputs": [
        {
          "internalType": "address",
          "name": "institution",
          "type": "address"
        }
      ],
      "name": "listInstitution",
      "outputs": [],
      "payable": false,
      "stateMutability": "nonpayable",
      "type": "function"
    },
    {
      "constant": false,
      "inputs": [
        {
          "internalType": "address",
          "name": "verifying_institution",
          "type": "address"
        },
        {
          "internalType": "string",
          "name": "details",
          "type": "string"
        }
      ],
      "name": "createClaim",
      "outputs": [],
      "payable": false,
      "stateMutability": "nonpayable",
      "type": "function"
    },
    {
      "constant": false,
      "inputs": [
        {
          "internalType": "uint256",
          "name": "claimId",
          "type": "uint256"
        },
        {
          "internalType": "int256",
          "name": "score",
          "type": "int256"
        },
        {
          "internalType": "uint8",
          "name": "status",
          "type": "uint8"
        }
      ],
      "name": "do_score",
      "outputs": [],
      "payable": false,
      "stateMutability": "nonpayable",
      "type": "function"
    },
    {
      "constant": false,
      "inputs": [
        {
          "internalType": "uint256",
          "name": "claim_id",
          "type": "uint256"
        }
      ],
      "name": "revoke",
      "outputs": [],
      "payable": false,
      "stateMutability": "nonpayable",
      "type": "function"
    },
    {
      "constant": false,
      "inputs": [
        {
          "internalType": "address",
          "name": "thirdParty",
          "type": "address"
        },
        {
          "internalType": "uint256",
          "name": "claim_id",
          "type": "uint256"
        }
      ],
      "name": "givePermission",
      "outputs": [],
      "payable": false,
      "stateMutability": "nonpayable",
      "type": "function"
    },
    {
      "constant": true,
      "inputs": [
        {
          "internalType": "uint256",
          "name": "claim_id",
          "type": "uint256"
        }
      ],
      "name": "viewClaim",
      "outputs": [
        {
          "internalType": "string",
          "name": "",
          "type": "string"
        }
      ],
      "payable": false,
      "stateMutability": "view",
      "type": "function"
    },
    {
      "constant": true,
      "inputs": [],
      "name": "getClaimId",
      "outputs": [
        {
          "internalType": "uint256",
          "name": "",
          "type": "uint256"
        }
      ],
      "payable": false,
      "stateMutability": "view",
      "type": "function"
    },
    {
      "constant": true,
      "inputs": [
        {
          "internalType": "uint256",
          "name": "claim_id",
          "type": "uint256"
        }
      ],
      "name": "getStatus",
      "outputs": [
        {
          "internalType": "uint8",
          "name": "",
          "type": "uint8"
        }
      ],
      "payable": false,
      "stateMutability": "view",
      "type": "function"
    }
  ],
  "bytecode": "0x6080604052600060055534801561001557600080fd5b50611bcb806100256000396000f3fe608060405234801561001057600080fd5b50600436106100cf5760003560e01c80638362615a1161008c578063947f3f1d11610066578063947f3f1d14610482578063a906d0b8146104de578063d6fc482914610522578063e68b96dd14610566576100cf565b80638362615a146103c3578063865c9e431461041f578063909ee5d714610464576100cf565b806315dd6b62146100d457806320c5429b146101fc578063225c76c31461022a5780635c622a0e1461027857806362fe2592146102c057806366406d5e1461031c575b600080fd5b610100600480360360208110156100ea57600080fd5b8101908080359060200190929190505050610641565b604051808773ffffffffffffffffffffffffffffffffffffffff1673ffffffffffffffffffffffffffffffffffffffff1681526020018673ffffffffffffffffffffffffffffffffffffffff1673ffffffffffffffffffffffffffffffffffffffff168152602001858152602001848152602001806020018360ff1660ff168152602001828103825284818151815260200191508051906020019080838360005b838110156101bc5780820151818401526020810190506101a1565b50505050905090810190601f1680156101e95780820380516001836020036101000a031916815260200191505b5097505050505050505060405180910390f35b6102286004803603602081101561021257600080fd5b8101908080359060200190929190505050610762565b005b6102766004803603604081101561024057600080fd5b81019080803573ffffffffffffffffffffffffffffffffffffffff169060200190929190803590602001909291905050506108f1565b005b6102a46004803603602081101561028e57600080fd5b8101908080359060200190929190505050610b79565b604051808260ff1660ff16815260200191505060405180910390f35b610302600480360360208110156102d657600080fd5b81019080803573ffffffffffffffffffffffffffffffffffffffff169060200190929190505050610c60565b604051808215151515815260200191505060405180910390f35b6103486004803603602081101561033257600080fd5b8101908080359060200190929190505050610d1b565b6040518080602001828103825283818151815260200191508051906020019080838360005b8381101561038857808201518184015260208101905061036d565b50505050905090810190601f1680156103b55780820380516001836020036101000a031916815260200191505b509250505060405180910390f35b610405600480360360208110156103d957600080fd5b81019080803573ffffffffffffffffffffffffffffffffffffffff169060200190929190505050610f5e565b604051808215151515815260200191505060405180910390f35b6104626004803603606081101561043557600080fd5b810190808035906020019092919080359060200190929190803560ff169060200190929190505050610f7e565b005b61046c611253565b6040518082815260200191505060405180910390f35b6104c46004803603602081101561049857600080fd5b81019080803573ffffffffffffffffffffffffffffffffffffffff169060200190929190505050611260565b604051808215151515815260200191505060405180910390f35b610520600480360360208110156104f457600080fd5b81019080803573ffffffffffffffffffffffffffffffffffffffff169060200190929190505050611280565b005b6105646004803603602081101561053857600080fd5b81019080803573ffffffffffffffffffffffffffffffffffffffff16906020019092919050505061139d565b005b61063f6004803603604081101561057c57600080fd5b81019080803573ffffffffffffffffffffffffffffffffffffffff169060200190929190803590602001906401000000008111156105b957600080fd5b8201836020820111156105cb57600080fd5b803590602001918460018302840111640100000000831117156105ed57600080fd5b91908080601f016020809104026020016040519081016040528093929190818152602001838380828437600081840152601f19601f8201169050808301925050505050505091929192905050506114ba565b005b60016020528060005260406000206000915090508060000160009054906101000a900473ffffffffffffffffffffffffffffffffffffffff16908060010160009054906101000a900473ffffffffffffffffffffffffffffffffffffffff1690806002015490806003015490806004018054600181600116156101000203166002900480601f0160208091040260200160405190810160405280929190818152602001828054600181600116156101000203166002900480156107455780601f1061071a57610100808354040283529160200191610745565b820191906000526020600020905b81548152906001019060200180831161072857829003601f168201915b5050505050908060050160009054906101000a900460ff16905086565b600460003373ffffffffffffffffffffffffffffffffffffffff1673ffffffffffffffffffffffffffffffffffffffff16815260200190815260200160002060009054906101000a900460ff16610804576040517f08c379a0000000000000000000000000000000000000000000000000000000008152600401808060200182810382526022815260200180611af26022913960400191505060405180910390fd5b3373ffffffffffffffffffffffffffffffffffffffff166001600083815260200190815260200160002060010160009054906101000a900473ffffffffffffffffffffffffffffffffffffffff1673ffffffffffffffffffffffffffffffffffffffff16146108be576040517f08c379a0000000000000000000000000000000000000000000000000000000008152600401808060200182810382526025815260200180611acd6025913960400191505060405180910390fd5b60036001600083815260200190815260200160002060050160006101000a81548160ff021916908360ff16021790555050565b600360003373ffffffffffffffffffffffffffffffffffffffff1673ffffffffffffffffffffffffffffffffffffffff16815260200190815260200160002060009054906101000a900460ff166109b0576040517f08c379a000000000000000000000000000000000000000000000000000000000815260040180806020018281038252601f8152602001807f53656e646572206973206e6f7420696e2063616e64696461746520706f6f6c0081525060200191505060405180910390fd5b3373ffffffffffffffffffffffffffffffffffffffff166001600083815260200190815260200160002060000160009054906101000a900473ffffffffffffffffffffffffffffffffffffffff1673ffffffffffffffffffffffffffffffffffffffff1614610a6a576040517f08c379a000000000000000000000000000000000000000000000000000000000815260040180806020018281038252602e815260200180611b14602e913960400191505060405180910390fd5b600460008373ffffffffffffffffffffffffffffffffffffffff1673ffffffffffffffffffffffffffffffffffffffff16815260200190815260200160002060009054906101000a900460ff16610b0c576040517f08c379a0000000000000000000000000000000000000000000000000000000008152600401808060200182810382526022815260200180611af26022913960400191505060405180910390fd5b60016002600083815260200190815260200160002060008473ffffffffffffffffffffffffffffffffffffffff1673ffffffffffffffffffffffffffffffffffffffff16815260200190815260200160002060006101000a81548160ff0219169083151502179055505050565b60003373ffffffffffffffffffffffffffffffffffffffff166001600084815260200190815260200160002060000160009054906101000a900473ffffffffffffffffffffffffffffffffffffffff1673ffffffffffffffffffffffffffffffffffffffff1614610c35576040517f08c379a000000000000000000000000000000000000000000000000000000000815260040180806020018281038252602e815260200180611b14602e913960400191505060405180910390fd5b6001600083815260200190815260200160002060050160009054906101000a900460ff169050919050565b60008060009050600360008473ffffffffffffffffffffffffffffffffffffffff1673ffffffffffffffffffffffffffffffffffffffff16815260200190815260200160002060009054906101000a900460ff1680610d085750600460008473ffffffffffffffffffffffffffffffffffffffff1673ffffffffffffffffffffffffffffffffffffffff16815260200190815260200160002060009054906101000a900460ff165b15610d1257600190505b80915050919050565b60603373ffffffffffffffffffffffffffffffffffffffff166001600084815260200190815260200160002060000160009054906101000a900473ffffffffffffffffffffffffffffffffffffffff1673ffffffffffffffffffffffffffffffffffffffff161480610dee57503373ffffffffffffffffffffffffffffffffffffffff166001600084815260200190815260200160002060010160009054906101000a900473ffffffffffffffffffffffffffffffffffffffff1673ffffffffffffffffffffffffffffffffffffffff16145b80610e5357506002600083815260200190815260200160002060003373ffffffffffffffffffffffffffffffffffffffff1673ffffffffffffffffffffffffffffffffffffffff16815260200190815260200160002060009054906101000a900460ff165b610ea8576040517f08c379a0000000000000000000000000000000000000000000000000000000008152600401808060200182810382526023815260200180611aaa6023913960400191505060405180910390fd5b600160008381526020019081526020016000206004018054600181600116156101000203166002900480601f016020809104026020016040519081016040528092919081815260200182805460018160011615610100020316600290048015610f525780601f10610f2757610100808354040283529160200191610f52565b820191906000526020600020905b815481529060010190602001808311610f3557829003601f168201915b50505050509050919050565b60046020528060005260406000206000915054906101000a900460ff1681565b600460003373ffffffffffffffffffffffffffffffffffffffff1673ffffffffffffffffffffffffffffffffffffffff16815260200190815260200160002060009054906101000a900460ff16611020576040517f08c379a0000000000000000000000000000000000000000000000000000000008152600401808060200182810382526022815260200180611af26022913960400191505060405180910390fd5b7fffffffffffffffffffffffffffffffffffffffffffffffffffffffffffffffff6001600085815260200190815260200160002060020154146110cb576040517f08c379a000000000000000000000000000000000000000000000000000000000815260040180806020018281038252601e8152602001807f436c61696d20616c72656164792061737369676e656420612073636f7265000081525060200191505060405180910390fd5b60026001600085815260200190815260200160002060050160009054906101000a900460ff1660ff161461114a576040517f08c379a000000000000000000000000000000000000000000000000000000000815260040180806020018281038252602f815260200180611b68602f913960400191505060405180910390fd5b3373ffffffffffffffffffffffffffffffffffffffff166001600085815260200190815260200160002060010160009054906101000a900473ffffffffffffffffffffffffffffffffffffffff1673ffffffffffffffffffffffffffffffffffffffff1614611204576040517f08c379a0000000000000000000000000000000000000000000000000000000008152600401808060200182810382526025815260200180611acd6025913960400191505060405180910390fd5b816001600085815260200190815260200160002060020181905550806001600085815260200190815260200160002060050160006101000a81548160ff021916908360ff160217905550505050565b6000600160055403905090565b60036020528060005260406000206000915054906101000a900460ff1681565b61128981610c60565b156112df576040517f08c379a0000000000000000000000000000000000000000000000000000000008152600401808060200182810382526026815260200180611b426026913960400191505060405180910390fd5b6001600460008373ffffffffffffffffffffffffffffffffffffffff1673ffffffffffffffffffffffffffffffffffffffff16815260200190815260200160002060006101000a81548160ff0219169083151502179055507f85aa0733b3fb7eb6446d3678b2b764111c325bbfbc9f61b3c5e82fdd84b48cbe81604051808273ffffffffffffffffffffffffffffffffffffffff1673ffffffffffffffffffffffffffffffffffffffff16815260200191505060405180910390a150565b6113a681610c60565b156113fc576040517f08c379a0000000000000000000000000000000000000000000000000000000008152600401808060200182810382526026815260200180611b426026913960400191505060405180910390fd5b6001600360008373ffffffffffffffffffffffffffffffffffffffff1673ffffffffffffffffffffffffffffffffffffffff16815260200190815260200160002060006101000a81548160ff0219169083151502179055507f53e5bd3bd4e32e2ff00492ad5cd171f1fe8a68a71948a847ef5a69c17d9eece781604051808273ffffffffffffffffffffffffffffffffffffffff1673ffffffffffffffffffffffffffffffffffffffff16815260200191505060405180910390a150565b600360003373ffffffffffffffffffffffffffffffffffffffff1673ffffffffffffffffffffffffffffffffffffffff16815260200190815260200160002060009054906101000a900460ff16611579576040517f08c379a00000000000000000000000000000000000000000000000000000000081526004018080602001828103825260208152602001807f53656e646572206973206e6f742061206c69737465642063616e64696461746581525060200191505060405180910390fd5b600460008373ffffffffffffffffffffffffffffffffffffffff1673ffffffffffffffffffffffffffffffffffffffff16815260200190815260200160002060009054906101000a900460ff1661161b576040517f08c379a0000000000000000000000000000000000000000000000000000000008152600401808060200182810382526031815260200180611a796031913960400191505060405180910390fd5b61162361196e565b6040518060c001604052803373ffffffffffffffffffffffffffffffffffffffff1681526020018473ffffffffffffffffffffffffffffffffffffffff1681526020017fffffffffffffffffffffffffffffffffffffffffffffffffffffffffffffffff81526020016005548152602001838152602001600260ff1681525090507f0278a23d8cc9b35e5a0f92559447690fbbcd1ee49a581d7e8cf80b320da42d7e60055484604051808381526020018273ffffffffffffffffffffffffffffffffffffffff1673ffffffffffffffffffffffffffffffffffffffff1681526020019250505060405180910390a16000803373ffffffffffffffffffffffffffffffffffffffff1673ffffffffffffffffffffffffffffffffffffffff168152602001908152602001600020819080600181540180825580915050906001820390600052602060002090600602016000909192909190915060008201518160000160006101000a81548173ffffffffffffffffffffffffffffffffffffffff021916908373ffffffffffffffffffffffffffffffffffffffff16021790555060208201518160010160006101000a81548173ffffffffffffffffffffffffffffffffffffffff021916908373ffffffffffffffffffffffffffffffffffffffff160217905550604082015181600201556060820151816003015560808201518160040190805190602001906118399291906119d3565b5060a08201518160050160006101000a81548160ff021916908360ff1602179055505050508060016000600554815260200190815260200160002060008201518160000160006101000a81548173ffffffffffffffffffffffffffffffffffffffff021916908373ffffffffffffffffffffffffffffffffffffffff16021790555060208201518160010160006101000a81548173ffffffffffffffffffffffffffffffffffffffff021916908373ffffffffffffffffffffffffffffffffffffffff160217905550604082015181600201556060820151816003015560808201518160040190805190602001906119329291906119d3565b5060a08201518160050160006101000a81548160ff021916908360ff160217905550905050600560008154809291906001019190505550505050565b6040518060c00160405280600073ffffffffffffffffffffffffffffffffffffffff168152602001600073ffffffffffffffffffffffffffffffffffffffff168152602001600081526020016000815260200160608152602001600060ff1681525090565b828054600181600116156101000203166002900490600052602060002090601f016020900481019282601f10611a1457805160ff1916838001178555611a42565b82800160010185558215611a42579182015b82811115611a41578251825591602001919060010190611a26565b5b509050611a4f9190611a53565b5090565b611a7591905b80821115611a71576000816000905550600101611a59565b5090565b9056fe566572696679696e6720696e737469747574696f6e206973206e6f742061206c697374656420696e737469747574696f6e53656e64657220646f6573206e6f7420686176652076696577696e672072696768747353656e64657220646f6573206e6f74206861766520766572696679696e672072696768747353656e646572206973206e6f742061206c697374656420696e737469747574696f6e53656e646572206973206e6f74207468652063616e646964617465206f662073706563696669656420636c61696d4163636f756e74206861732070726576696f75736c79206265656e20726567697374657265644f6e6c792070656e64696e6720636c61696d732063616e2062652061737369676e65642061206e65772073636f7265a265627a7a72315820290a04ed26ee6836825d50485a1e80302ebf4483a1c2d855e7537ce4fc33309164736f6c63430005100032",
  "source": "pragma solidity ^0.5.0;\n\ncontract Credential {\n    \n    mapping(address => claim[]) candidate_claim_records;\n    mapping(uint256 => claim) public claim_records;\n    mapping(uint256 => mapping(address => bool)) permission_records; // Claim Id ==> Third Party's Address => Bool of permission given\n\n    mapping(address => bool) public candidate_pool;\n    mapping(address => bool) public institution_pool;\n\n    uint256 claim_counter = 0;\n\n    struct claim {\n        address candidate;\n        address verifier;\n        int256 score;\n        uint256 id;\n        string content; // points to firebase database\n        uint8 status; // 0 is false, 1 is true, 2 is pending, 3 for revoke status?\n    }\n    \n    event claimCreated(uint256 claimId, address verifier);\n    event candidateListed (address candidate);\n    event institutionListed (address institution);\n\n    function recordExists(address _check) view public returns(bool) {\n        bool result = false;\n        if(candidate_pool[_check] || institution_pool[_check]) {\n            result = true;\n        } \n        return result;\n    }\n\n\n    function listCandidate(address candidate) public {\n        if (recordExists(candidate)){\n            revert(\"Account has previously been registered\");\n        } else {\n        candidate_pool[candidate] = true;\n        emit candidateListed(candidate);\n        }\n    }\n    \n    function listInstitution(address institution) public {\n        if (recordExists(institution)){\n            revert(\"Account has previously been registered\");\n        } else {\n        institution_pool[institution] = true;\n        emit institutionListed(institution);\n    }\n    }\n\n    function createClaim(address verifying_institution, string memory details) public {\n        require(candidate_pool[msg.sender], \"Sender is not a listed candidate\");\n        require(institution_pool[verifying_institution], \"Verifying institution is not a listed institution\");\n\n        // Create a claim instance\n        claim memory newClaim = claim(\n            msg.sender,\n            verifying_institution,\n            -1, // no score assigned yet\n            claim_counter,\n            details, // populate claims with details (string)\n            2 // pending\n        );\n\n        // when they call this, then it sends to a verifier\n        // Add event to listen to this --> allows for notification of verifier\n        emit claimCreated(claim_counter, verifying_institution);\n        \n        // Add to candidate_claim_records\n        candidate_claim_records[msg.sender].push(newClaim);\n\n        // claim_records\n        claim_records[claim_counter] = newClaim;\n        claim_counter++;\n    }\n\n    /*\n    function verify_claim(uint256 claimid) public {\n        // won't update on blockchain\n        // returns status\n        // return pointer of claim?\n    }\n    */\n\n    function do_score(uint256 claimId, int256 score, uint8 status) public {\n        require(institution_pool[msg.sender], \"Sender is not a listed institution\");\n        require(claim_records[claimId].score == -1, \"Claim already assigned a score\");\n        require(claim_records[claimId].status == 2, \"Only pending claims can be assigned a new score\");\n        require(claim_records[claimId].verifier == msg.sender, \"Sender does not have verifying rights\");\n        \n        //question: what does the do_score fn have to do with permission_records (abit confused here :D)\n\n         // update score\n        claim_records[claimId].score = score; \n        // update status\n        claim_records[claimId].status = status;\n        // logic to determine score and status to be done in vue?\n    }\n\n    \n\n    function revoke(uint256 claim_id) public {\n        require(institution_pool[msg.sender], \"Sender is not a listed institution\");\n        require(claim_records[claim_id].verifier == msg.sender, \"Sender does not have verifying rights\");\n        \n        //change status to revoke claim validity\n        claim_records[claim_id].status = 3; // 3 for revoke status\n    }\n\n    function givePermission(address thirdParty, uint256 claim_id) public {\n        require(candidate_pool[msg.sender], \"Sender is not in candidate pool\");\n        require(claim_records[claim_id].candidate == msg.sender, \"Sender is not the candidate of specified claim\");\n        require(institution_pool[thirdParty], \"Sender is not a listed institution\");\n\n\n        permission_records[claim_id][thirdParty] = true;\n    }\n\n    function viewClaim(uint256 claim_id) public view returns(string memory){\n        require(claim_records[claim_id].candidate == msg.sender || claim_records[claim_id].verifier == msg.sender || permission_records[claim_id][msg.sender],\n        \"Sender does not have viewing rights\"); //Only the owner/verifier/allowed third-party can view the claim\n        return(claim_records[claim_id].content);\n        \n        //View claim --> Returns JSON?\n    }\n\n\n    //ADDITIONAL GETTERS TO SUPPORT VUE APP\n    function getClaimId() public view returns (uint256) {\n        // returns current claim counter\n        return claim_counter-1;\n    }\n    function getStatus(uint256 claim_id) public view returns (uint8) {\n        require(claim_records[claim_id].candidate == msg.sender, \"Sender is not the candidate of specified claim\");\n        return claim_records[claim_id].status;\n    }\n}\n",
  "sourcePath": "/Users/darylkoh/Downloads/seevee/truffle/contracts/Credential.sol",
  "compiler": {
    "name": "solc",
    "version": "0.5.16+commit.9c3226ce.Emscripten.clang"
  },
  "schemaVersion": "3.3.3",
  "updatedAt": "2021-03-29T20:16:52.779Z",
  "networkType": "ethereum",
  "devdoc": {
    "methods": {}
  },
  "userdoc": {
    "methods": {}
  }
}