{
  "contractName": "Credential",
  "abi": [
    {
      "inputs": [
        {
          "internalType": "contract TokenCounter",
          "name": "counterAddress",
          "type": "address"
        }
      ],
      "payable": false,
      "stateMutability": "nonpayable",
      "type": "constructor"
    },
    {
      "constant": true,
      "inputs": [],
      "name": "owner",
      "outputs": [
        {
          "internalType": "address",
          "name": "",
          "type": "address"
        }
      ],
      "payable": false,
      "stateMutability": "view",
      "type": "function"
    },
    {
      "constant": true,
      "inputs": [],
      "name": "tokenId",
      "outputs": [
        {
          "internalType": "uint256",
          "name": "",
          "type": "uint256"
        }
      ],
      "payable": false,
      "stateMutability": "view",
      "type": "function"
    },
    {
      "constant": false,
      "inputs": [
        {
          "internalType": "address",
          "name": "student",
          "type": "address"
        },
        {
          "internalType": "string",
          "name": "code",
          "type": "string"
        },
        {
          "internalType": "string",
          "name": "grade",
          "type": "string"
        }
      ],
      "name": "mintAcad",
      "outputs": [],
      "payable": false,
      "stateMutability": "nonpayable",
      "type": "function"
    },
    {
      "constant": true,
      "inputs": [
        {
          "internalType": "address",
          "name": "student",
          "type": "address"
        },
        {
          "internalType": "string",
          "name": "module",
          "type": "string"
        }
      ],
      "name": "viewGrade",
      "outputs": [
        {
          "internalType": "string",
          "name": "",
          "type": "string"
        }
      ],
      "payable": false,
      "stateMutability": "view",
      "type": "function"
    },
    {
      "constant": true,
      "inputs": [],
      "name": "viewOwner",
      "outputs": [
        {
          "internalType": "address",
          "name": "",
          "type": "address"
        }
      ],
      "payable": false,
      "stateMutability": "view",
      "type": "function"
    },
    {
      "constant": true,
      "inputs": [],
      "name": "getOwner",
      "outputs": [
        {
          "internalType": "address",
          "name": "",
          "type": "address"
        }
      ],
      "payable": false,
      "stateMutability": "view",
      "type": "function"
    },
    {
      "constant": true,
      "inputs": [
        {
          "internalType": "address",
          "name": "student",
          "type": "address"
        }
      ],
      "name": "studentAcadCount",
      "outputs": [
        {
          "internalType": "uint256",
          "name": "",
          "type": "uint256"
        }
      ],
      "payable": false,
      "stateMutability": "view",
      "type": "function"
    },
    {
      "constant": true,
      "inputs": [],
      "name": "totalToken",
      "outputs": [
        {
          "internalType": "uint256",
          "name": "",
          "type": "uint256"
        }
      ],
      "payable": false,
      "stateMutability": "view",
      "type": "function"
    }
  ],
  "bytecode": "0x608060405234801561001057600080fd5b50604051610dfb380380610dfb8339818101604052602081101561003357600080fd5b8101908080519060200190929190505050336000806101000a81548173ffffffffffffffffffffffffffffffffffffffff021916908373ffffffffffffffffffffffffffffffffffffffff160217905550600060028190555080600160006101000a81548173ffffffffffffffffffffffffffffffffffffffff021916908373ffffffffffffffffffffffffffffffffffffffff16021790555050610d1e806100dd6000396000f3fe608060405234801561001057600080fd5b50600436106100885760003560e01c8063893d20e81161005b578063893d20e8146102755780638da5cb5b146102bf578063bc677b4614610309578063ee9dd4c31461035357610088565b806317d70f7c1461008d578063626be567146100ab5780637170ab2a146100c957806385ad51a614610121575b600080fd5b6100956104c5565b6040518082815260200191505060405180910390f35b6100b36104cb565b6040518082815260200191505060405180910390f35b61010b600480360360208110156100df57600080fd5b81019080803573ffffffffffffffffffffffffffffffffffffffff1690602001909291905050506104d5565b6040518082815260200191505060405180910390f35b6101fa6004803603604081101561013757600080fd5b81019080803573ffffffffffffffffffffffffffffffffffffffff1690602001909291908035906020019064010000000081111561017457600080fd5b82018360208201111561018657600080fd5b803590602001918460018302840111640100000000831117156101a857600080fd5b91908080601f016020809104026020016040519081016040528093929190818152602001838380828437600081840152601f19601f8201169050808301925050505050505091929192905050506105b8565b6040518080602001828103825283818151815260200191508051906020019080838360005b8381101561023a57808201518184015260208101905061021f565b50505050905090810190601f1680156102675780820380516001836020036101000a031916815260200191505b509250505060405180910390f35b61027d6108bd565b604051808273ffffffffffffffffffffffffffffffffffffffff1673ffffffffffffffffffffffffffffffffffffffff16815260200191505060405180910390f35b6102c76108e6565b604051808273ffffffffffffffffffffffffffffffffffffffff1673ffffffffffffffffffffffffffffffffffffffff16815260200191505060405180910390f35b61031161090b565b604051808273ffffffffffffffffffffffffffffffffffffffff1673ffffffffffffffffffffffffffffffffffffffff16815260200191505060405180910390f35b6104c36004803603606081101561036957600080fd5b81019080803573ffffffffffffffffffffffffffffffffffffffff169060200190929190803590602001906401000000008111156103a657600080fd5b8201836020820111156103b857600080fd5b803590602001918460018302840111640100000000831117156103da57600080fd5b91908080601f016020809104026020016040519081016040528093929190818152602001838380828437600081840152601f19601f8201169050808301925050505050505091929192908035906020019064010000000081111561043d57600080fd5b82018360208201111561044f57600080fd5b8035906020019184600183028401116401000000008311171561047157600080fd5b91908080601f016020809104026020016040519081016040528093929190818152602001838380828437600081840152601f19601f820116905080830192505050505050509192919290505050610934565b005b60025481565b6000600254905090565b6000600160009054906101000a900473ffffffffffffffffffffffffffffffffffffffff1673ffffffffffffffffffffffffffffffffffffffff166356225a09836040518263ffffffff1660e01b8152600401808273ffffffffffffffffffffffffffffffffffffffff1673ffffffffffffffffffffffffffffffffffffffff16815260200191505060206040518083038186803b15801561057657600080fd5b505afa15801561058a573d6000803e3d6000fd5b505050506040513d60208110156105a057600080fd5b81019080805190602001909291905050509050919050565b6060806040518060400160405280600281526020017f4e41000000000000000000000000000000000000000000000000000000000000815250905060006001905060008090506060600360008873ffffffffffffffffffffffffffffffffffffffff1673ffffffffffffffffffffffffffffffffffffffff168152602001908152602001600020805480602002602001604051908101604052809291908181526020016000905b8282101561083557838290600052602060002090600402016040518060800160405290816000820160009054906101000a900473ffffffffffffffffffffffffffffffffffffffff1673ffffffffffffffffffffffffffffffffffffffff1673ffffffffffffffffffffffffffffffffffffffff168152602001600182018054600181600116156101000203166002900480601f0160208091040260200160405190810160405280929190818152602001828054600181600116156101000203166002900480156107715780601f1061074657610100808354040283529160200191610771565b820191906000526020600020905b81548152906001019060200180831161075457829003601f168201915b50505050508152602001600282018054600181600116156101000203166002900480601f0160208091040260200160405190810160405280929190818152602001828054600181600116156101000203166002900480156108135780601f106107e857610100808354040283529160200191610813565b820191906000526020600020905b8154815290600101906020018083116107f657829003601f168201915b505050505081526020016003820154815250508152602001906001019061065f565b5050505090506000815190505b83801561084e57508281115b156108af57868051906020012082848151811061086757fe5b6020026020010151602001518051906020012014156108a3576000935081838151811061089057fe5b60200260200101516040015194506108aa565b6001830192505b610842565b849550505050505092915050565b60008060009054906101000a900473ffffffffffffffffffffffffffffffffffffffff16905090565b6000809054906101000a900473ffffffffffffffffffffffffffffffffffffffff1681565b60008060009054906101000a900473ffffffffffffffffffffffffffffffffffffffff16905090565b3373ffffffffffffffffffffffffffffffffffffffff166000809054906101000a900473ffffffffffffffffffffffffffffffffffffffff1673ffffffffffffffffffffffffffffffffffffffff16146109d9576040517f08c379a0000000000000000000000000000000000000000000000000000000008152600401808060200182810382526021815260200180610cc96021913960400191505060405180910390fd5b600160009054906101000a900473ffffffffffffffffffffffffffffffffffffffff1673ffffffffffffffffffffffffffffffffffffffff16636a627842846040518263ffffffff1660e01b8152600401808273ffffffffffffffffffffffffffffffffffffffff1673ffffffffffffffffffffffffffffffffffffffff168152602001915050600060405180830381600087803b158015610a7a57600080fd5b505af1158015610a8e573d6000803e3d6000fd5b505050506001600260008282540192505081905550610aab610be5565b60405180608001604052808573ffffffffffffffffffffffffffffffffffffffff1681526020018481526020018381526020016002548152509050600360008573ffffffffffffffffffffffffffffffffffffffff1673ffffffffffffffffffffffffffffffffffffffff168152602001908152602001600020819080600181540180825580915050906001820390600052602060002090600402016000909192909190915060008201518160000160006101000a81548173ffffffffffffffffffffffffffffffffffffffff021916908373ffffffffffffffffffffffffffffffffffffffff1602179055506020820151816001019080519060200190610bb4929190610c23565b506040820151816002019080519060200190610bd1929190610c23565b506060820151816003015550505050505050565b6040518060800160405280600073ffffffffffffffffffffffffffffffffffffffff1681526020016060815260200160608152602001600081525090565b828054600181600116156101000203166002900490600052602060002090601f016020900481019282601f10610c6457805160ff1916838001178555610c92565b82800160010185558215610c92579182015b82811115610c91578251825591602001919060010190610c76565b5b509050610c9f9190610ca3565b5090565b610cc591905b80821115610cc1576000816000905550600101610ca9565b5090565b9056fe4f6e6c79206f776e65722063616e20706572666f726d2074686973207461736b2ea265627a7a72315820938614af72fb3ce75259b92aa28ff19ee093e38171faa6dde56e65ddfe82a63264736f6c63430005100032",
  "source": "pragma solidity ^0.5.0;\n\nimport \"./TokenCounter.sol\";\n\n// Testing credential\ncontract Credential {\n    address public owner;\n    TokenCounter counter;\n\n    struct Acad {\n        address student;\n        string code;\n        string grade;\n        uint tokenId;\n    }\n\n    uint public tokenId;\n    mapping (address => Acad[]) acadDirectory;\n\n    constructor(TokenCounter counterAddress) public {\n        owner = msg.sender;\n        tokenId = 0;\n        counter = counterAddress;\n    }\n\n    modifier ownerOnly() {\n        require(owner == msg.sender, \"Only owner can perform this task.\");\n        _;\n    }\n\n    function mintAcad(address student, string memory code, string memory grade) public ownerOnly() {\n        counter.mint(student);\n        tokenId += 1;\n        Acad memory entry = Acad(\n            student,\n            code,\n            grade,\n            tokenId\n        );\n        acadDirectory[student].push(entry);\n    }\n\n    function viewGrade(address student, string memory module) public view returns(string memory) {\n        string memory res = \"NA\";\n        bool flag = true;\n        uint c = 0;\n        Acad[] memory arr = acadDirectory[student];\n        uint max = arr.length;\n        while (flag && (max>c)) {\n            if (keccak256(bytes(arr[c].code)) == keccak256(bytes(module))) {\n                flag = false;\n                res = arr[c].grade;\n            } else {\n                c += 1;\n            }\n        }\n        return res;\n    }\n\n    function viewOwner() public view returns(address) {\n        return owner;\n    }\n\n    function getOwner() public view returns(address) {\n        return owner;\n    }\n\n    function studentAcadCount(address student) public view returns(uint) {\n        return counter.tokenCount(student);\n    }\n\n    function totalToken() public view returns(uint) {\n        return tokenId;\n    }\n}\n\n",
  "sourcePath": "/Users/darylkoh/Downloads/seevee/truffle/contracts/Credential.sol",
  "compiler": {
    "name": "solc",
    "version": "0.5.16+commit.9c3226ce.Emscripten.clang"
  },
  "schemaVersion": "3.3.3",
  "updatedAt": "2021-03-27T04:18:07.783Z",
  "networkType": "ethereum",
  "devdoc": {
    "methods": {}
  },
  "userdoc": {
    "methods": {}
  }
}