{
  "contractName": "Credential",
  "abi": [
    {
      "anonymous": false,
      "inputs": [
        {
          "indexed": false,
          "internalType": "address",
          "name": "candidate",
          "type": "address"
        }
      ],
      "name": "candidateListed",
      "type": "event"
    },
    {
      "anonymous": false,
      "inputs": [
        {
          "indexed": false,
          "internalType": "uint256",
          "name": "claimId",
          "type": "uint256"
        },
        {
          "indexed": false,
          "internalType": "address",
          "name": "verifier",
          "type": "address"
        }
      ],
      "name": "claimCreated",
      "type": "event"
    },
    {
      "anonymous": false,
      "inputs": [
        {
          "indexed": false,
          "internalType": "address",
          "name": "institution",
          "type": "address"
        }
      ],
      "name": "institutionListed",
      "type": "event"
    },
    {
      "constant": true,
      "inputs": [
        {
          "internalType": "address",
          "name": "",
          "type": "address"
        }
      ],
      "name": "candidate_pool",
      "outputs": [
        {
          "internalType": "bool",
          "name": "",
          "type": "bool"
        }
      ],
      "payable": false,
      "stateMutability": "view",
      "type": "function"
    },
    {
      "constant": true,
      "inputs": [
        {
          "internalType": "uint256",
          "name": "",
          "type": "uint256"
        }
      ],
      "name": "claim_records",
      "outputs": [
        {
          "internalType": "address",
          "name": "candidate",
          "type": "address"
        },
        {
          "internalType": "address",
          "name": "verifier",
          "type": "address"
        },
        {
          "internalType": "int256",
          "name": "score",
          "type": "int256"
        },
        {
          "internalType": "uint256",
          "name": "id",
          "type": "uint256"
        },
        {
          "internalType": "string",
          "name": "content",
          "type": "string"
        },
        {
          "internalType": "uint8",
          "name": "status",
          "type": "uint8"
        }
      ],
      "payable": false,
      "stateMutability": "view",
      "type": "function"
    },
    {
      "constant": true,
      "inputs": [
        {
          "internalType": "address",
          "name": "",
          "type": "address"
        }
      ],
      "name": "institution_pool",
      "outputs": [
        {
          "internalType": "bool",
          "name": "",
          "type": "bool"
        }
      ],
      "payable": false,
      "stateMutability": "view",
      "type": "function"
    },
    {
      "constant": true,
      "inputs": [
        {
          "internalType": "address",
          "name": "_check",
          "type": "address"
        }
      ],
      "name": "recordExists",
      "outputs": [
        {
          "internalType": "bool",
          "name": "",
          "type": "bool"
        }
      ],
      "payable": false,
      "stateMutability": "view",
      "type": "function"
    },
    {
      "constant": false,
      "inputs": [
        {
          "internalType": "address",
          "name": "candidate",
          "type": "address"
        }
      ],
      "name": "listCandidate",
      "outputs": [],
      "payable": false,
      "stateMutability": "nonpayable",
      "type": "function"
    },
    {
      "constant": false,
      "inputs": [
        {
          "internalType": "address",
          "name": "institution",
          "type": "address"
        }
      ],
      "name": "listInstitution",
      "outputs": [],
      "payable": false,
      "stateMutability": "nonpayable",
      "type": "function"
    },
    {
      "constant": false,
      "inputs": [
        {
          "internalType": "address",
          "name": "verifying_institution",
          "type": "address"
        },
        {
          "internalType": "string",
          "name": "details",
          "type": "string"
        }
      ],
      "name": "createClaim",
      "outputs": [],
      "payable": false,
      "stateMutability": "nonpayable",
      "type": "function"
    },
    {
      "constant": false,
      "inputs": [
        {
          "internalType": "uint256",
          "name": "claimId",
          "type": "uint256"
        },
        {
          "internalType": "int256",
          "name": "score",
          "type": "int256"
        },
        {
          "internalType": "uint8",
          "name": "status",
          "type": "uint8"
        }
      ],
      "name": "do_score",
      "outputs": [],
      "payable": false,
      "stateMutability": "nonpayable",
      "type": "function"
    },
    {
      "constant": false,
      "inputs": [
        {
          "internalType": "uint256",
          "name": "claim_id",
          "type": "uint256"
        }
      ],
      "name": "revoke",
      "outputs": [],
      "payable": false,
      "stateMutability": "nonpayable",
      "type": "function"
    },
    {
      "constant": false,
      "inputs": [
        {
          "internalType": "address",
          "name": "thirdParty",
          "type": "address"
        },
        {
          "internalType": "uint256",
          "name": "claim_id",
          "type": "uint256"
        }
      ],
      "name": "givePermission",
      "outputs": [],
      "payable": false,
      "stateMutability": "nonpayable",
      "type": "function"
    },
    {
      "constant": true,
      "inputs": [
        {
          "internalType": "uint256",
          "name": "claim_id",
          "type": "uint256"
        }
      ],
      "name": "viewClaim",
      "outputs": [
        {
          "internalType": "string",
          "name": "",
          "type": "string"
        }
      ],
      "payable": false,
      "stateMutability": "view",
      "type": "function"
    },
    {
      "constant": true,
      "inputs": [],
      "name": "getClaimId",
      "outputs": [
        {
          "internalType": "uint256",
          "name": "",
          "type": "uint256"
        }
      ],
      "payable": false,
      "stateMutability": "view",
      "type": "function"
    },
    {
      "constant": true,
      "inputs": [
        {
          "internalType": "uint256",
          "name": "claim_id",
          "type": "uint256"
        }
      ],
      "name": "getStatus",
      "outputs": [
        {
          "internalType": "uint8",
          "name": "",
          "type": "uint8"
        }
      ],
      "payable": false,
      "stateMutability": "view",
      "type": "function"
    },
    {
      "constant": true,
      "inputs": [
        {
          "internalType": "uint256",
          "name": "claim_id",
          "type": "uint256"
        }
      ],
      "name": "getScore",
      "outputs": [
        {
          "internalType": "int256",
          "name": "",
          "type": "int256"
        }
      ],
      "payable": false,
      "stateMutability": "view",
      "type": "function"
    }
  ],
  "bytecode": "0x6080604052600060055534801561001557600080fd5b50611ea4806100256000396000f3fe608060405234801561001057600080fd5b50600436106100ea5760003560e01c80638362615a1161008c578063947f3f1d11610066578063947f3f1d146104df578063a906d0b81461053b578063d6fc48291461057f578063e68b96dd146105c3576100ea565b80638362615a14610420578063865c9e431461047c578063909ee5d7146104c1576100ea565b8063225c76c3116100c8578063225c76c3146102875780635c622a0e146102d557806362fe25921461031d57806366406d5e14610379576100ea565b80630e1af57b146100ef57806315dd6b621461013157806320c5429b14610259575b600080fd5b61011b6004803603602081101561010557600080fd5b810190808035906020019092919050505061069e565b6040518082815260200191505060405180910390f35b61015d6004803603602081101561014757600080fd5b8101908080359060200190929190505050610849565b604051808773ffffffffffffffffffffffffffffffffffffffff1673ffffffffffffffffffffffffffffffffffffffff1681526020018673ffffffffffffffffffffffffffffffffffffffff1673ffffffffffffffffffffffffffffffffffffffff168152602001858152602001848152602001806020018360ff1660ff168152602001828103825284818151815260200191508051906020019080838360005b838110156102195780820151818401526020810190506101fe565b50505050905090810190601f1680156102465780820380516001836020036101000a031916815260200191505b5097505050505050505060405180910390f35b6102856004803603602081101561026f57600080fd5b810190808035906020019092919050505061096a565b005b6102d36004803603604081101561029d57600080fd5b81019080803573ffffffffffffffffffffffffffffffffffffffff16906020019092919080359060200190929190505050610af9565b005b610301600480360360208110156102eb57600080fd5b8101908080359060200190929190505050610d81565b604051808260ff1660ff16815260200191505060405180910390f35b61035f6004803603602081101561033357600080fd5b81019080803573ffffffffffffffffffffffffffffffffffffffff169060200190929190505050610f39565b604051808215151515815260200191505060405180910390f35b6103a56004803603602081101561038f57600080fd5b8101908080359060200190929190505050610ff4565b6040518080602001828103825283818151815260200191508051906020019080838360005b838110156103e55780820151818401526020810190506103ca565b50505050905090810190601f1680156104125780820380516001836020036101000a031916815260200191505b509250505060405180910390f35b6104626004803603602081101561043657600080fd5b81019080803573ffffffffffffffffffffffffffffffffffffffff169060200190929190505050611237565b604051808215151515815260200191505060405180910390f35b6104bf6004803603606081101561049257600080fd5b810190808035906020019092919080359060200190929190803560ff169060200190929190505050611257565b005b6104c961152c565b6040518082815260200191505060405180910390f35b610521600480360360208110156104f557600080fd5b81019080803573ffffffffffffffffffffffffffffffffffffffff169060200190929190505050611539565b604051808215151515815260200191505060405180910390f35b61057d6004803603602081101561055157600080fd5b81019080803573ffffffffffffffffffffffffffffffffffffffff169060200190929190505050611559565b005b6105c16004803603602081101561059557600080fd5b81019080803573ffffffffffffffffffffffffffffffffffffffff169060200190929190505050611676565b005b61069c600480360360408110156105d957600080fd5b81019080803573ffffffffffffffffffffffffffffffffffffffff1690602001909291908035906020019064010000000081111561061657600080fd5b82018360208201111561062857600080fd5b8035906020019184600183028401116401000000008311171561064a57600080fd5b91908080601f016020809104026020016040519081016040528093929190818152602001838380828437600081840152601f19601f820116905080830192505050505050509192919290505050611793565b005b60003373ffffffffffffffffffffffffffffffffffffffff166001600084815260200190815260200160002060000160009054906101000a900473ffffffffffffffffffffffffffffffffffffffff1673ffffffffffffffffffffffffffffffffffffffff16148061077157503373ffffffffffffffffffffffffffffffffffffffff166001600084815260200190815260200160002060010160009054906101000a900473ffffffffffffffffffffffffffffffffffffffff1673ffffffffffffffffffffffffffffffffffffffff16145b806107d657506002600083815260200190815260200160002060003373ffffffffffffffffffffffffffffffffffffffff1673ffffffffffffffffffffffffffffffffffffffff16815260200190815260200160002060009054906101000a900460ff165b61082b576040517f08c379a0000000000000000000000000000000000000000000000000000000008152600401808060200182810382526023815260200180611d836023913960400191505060405180910390fd5b60016000838152602001908152602001600020600201549050919050565b60016020528060005260406000206000915090508060000160009054906101000a900473ffffffffffffffffffffffffffffffffffffffff16908060010160009054906101000a900473ffffffffffffffffffffffffffffffffffffffff1690806002015490806003015490806004018054600181600116156101000203166002900480601f01602080910402602001604051908101604052809291908181526020018280546001816001161561010002031660029004801561094d5780601f106109225761010080835404028352916020019161094d565b820191906000526020600020905b81548152906001019060200180831161093057829003601f168201915b5050505050908060050160009054906101000a900460ff16905086565b600460003373ffffffffffffffffffffffffffffffffffffffff1673ffffffffffffffffffffffffffffffffffffffff16815260200190815260200160002060009054906101000a900460ff16610a0c576040517f08c379a0000000000000000000000000000000000000000000000000000000008152600401808060200182810382526022815260200180611dcb6022913960400191505060405180910390fd5b3373ffffffffffffffffffffffffffffffffffffffff166001600083815260200190815260200160002060010160009054906101000a900473ffffffffffffffffffffffffffffffffffffffff1673ffffffffffffffffffffffffffffffffffffffff1614610ac6576040517f08c379a0000000000000000000000000000000000000000000000000000000008152600401808060200182810382526025815260200180611da66025913960400191505060405180910390fd5b60036001600083815260200190815260200160002060050160006101000a81548160ff021916908360ff16021790555050565b600360003373ffffffffffffffffffffffffffffffffffffffff1673ffffffffffffffffffffffffffffffffffffffff16815260200190815260200160002060009054906101000a900460ff16610bb8576040517f08c379a000000000000000000000000000000000000000000000000000000000815260040180806020018281038252601f8152602001807f53656e646572206973206e6f7420696e2063616e64696461746520706f6f6c0081525060200191505060405180910390fd5b3373ffffffffffffffffffffffffffffffffffffffff166001600083815260200190815260200160002060000160009054906101000a900473ffffffffffffffffffffffffffffffffffffffff1673ffffffffffffffffffffffffffffffffffffffff1614610c72576040517f08c379a000000000000000000000000000000000000000000000000000000000815260040180806020018281038252602e815260200180611ded602e913960400191505060405180910390fd5b600460008373ffffffffffffffffffffffffffffffffffffffff1673ffffffffffffffffffffffffffffffffffffffff16815260200190815260200160002060009054906101000a900460ff16610d14576040517f08c379a0000000000000000000000000000000000000000000000000000000008152600401808060200182810382526022815260200180611dcb6022913960400191505060405180910390fd5b60016002600083815260200190815260200160002060008473ffffffffffffffffffffffffffffffffffffffff1673ffffffffffffffffffffffffffffffffffffffff16815260200190815260200160002060006101000a81548160ff0219169083151502179055505050565b60003373ffffffffffffffffffffffffffffffffffffffff166001600084815260200190815260200160002060000160009054906101000a900473ffffffffffffffffffffffffffffffffffffffff1673ffffffffffffffffffffffffffffffffffffffff161480610e5457503373ffffffffffffffffffffffffffffffffffffffff166001600084815260200190815260200160002060010160009054906101000a900473ffffffffffffffffffffffffffffffffffffffff1673ffffffffffffffffffffffffffffffffffffffff16145b80610eb957506002600083815260200190815260200160002060003373ffffffffffffffffffffffffffffffffffffffff1673ffffffffffffffffffffffffffffffffffffffff16815260200190815260200160002060009054906101000a900460ff165b610f0e576040517f08c379a0000000000000000000000000000000000000000000000000000000008152600401808060200182810382526023815260200180611d836023913960400191505060405180910390fd5b6001600083815260200190815260200160002060050160009054906101000a900460ff169050919050565b60008060009050600360008473ffffffffffffffffffffffffffffffffffffffff1673ffffffffffffffffffffffffffffffffffffffff16815260200190815260200160002060009054906101000a900460ff1680610fe15750600460008473ffffffffffffffffffffffffffffffffffffffff1673ffffffffffffffffffffffffffffffffffffffff16815260200190815260200160002060009054906101000a900460ff165b15610feb57600190505b80915050919050565b60603373ffffffffffffffffffffffffffffffffffffffff166001600084815260200190815260200160002060000160009054906101000a900473ffffffffffffffffffffffffffffffffffffffff1673ffffffffffffffffffffffffffffffffffffffff1614806110c757503373ffffffffffffffffffffffffffffffffffffffff166001600084815260200190815260200160002060010160009054906101000a900473ffffffffffffffffffffffffffffffffffffffff1673ffffffffffffffffffffffffffffffffffffffff16145b8061112c57506002600083815260200190815260200160002060003373ffffffffffffffffffffffffffffffffffffffff1673ffffffffffffffffffffffffffffffffffffffff16815260200190815260200160002060009054906101000a900460ff165b611181576040517f08c379a0000000000000000000000000000000000000000000000000000000008152600401808060200182810382526023815260200180611d836023913960400191505060405180910390fd5b600160008381526020019081526020016000206004018054600181600116156101000203166002900480601f01602080910402602001604051908101604052809291908181526020018280546001816001161561010002031660029004801561122b5780601f106112005761010080835404028352916020019161122b565b820191906000526020600020905b81548152906001019060200180831161120e57829003601f168201915b50505050509050919050565b60046020528060005260406000206000915054906101000a900460ff1681565b600460003373ffffffffffffffffffffffffffffffffffffffff1673ffffffffffffffffffffffffffffffffffffffff16815260200190815260200160002060009054906101000a900460ff166112f9576040517f08c379a0000000000000000000000000000000000000000000000000000000008152600401808060200182810382526022815260200180611dcb6022913960400191505060405180910390fd5b7fffffffffffffffffffffffffffffffffffffffffffffffffffffffffffffffff6001600085815260200190815260200160002060020154146113a4576040517f08c379a000000000000000000000000000000000000000000000000000000000815260040180806020018281038252601e8152602001807f436c61696d20616c72656164792061737369676e656420612073636f7265000081525060200191505060405180910390fd5b60026001600085815260200190815260200160002060050160009054906101000a900460ff1660ff1614611423576040517f08c379a000000000000000000000000000000000000000000000000000000000815260040180806020018281038252602f815260200180611e41602f913960400191505060405180910390fd5b3373ffffffffffffffffffffffffffffffffffffffff166001600085815260200190815260200160002060010160009054906101000a900473ffffffffffffffffffffffffffffffffffffffff1673ffffffffffffffffffffffffffffffffffffffff16146114dd576040517f08c379a0000000000000000000000000000000000000000000000000000000008152600401808060200182810382526025815260200180611da66025913960400191505060405180910390fd5b816001600085815260200190815260200160002060020181905550806001600085815260200190815260200160002060050160006101000a81548160ff021916908360ff160217905550505050565b6000600160055403905090565b60036020528060005260406000206000915054906101000a900460ff1681565b61156281610f39565b156115b8576040517f08c379a0000000000000000000000000000000000000000000000000000000008152600401808060200182810382526026815260200180611e1b6026913960400191505060405180910390fd5b6001600460008373ffffffffffffffffffffffffffffffffffffffff1673ffffffffffffffffffffffffffffffffffffffff16815260200190815260200160002060006101000a81548160ff0219169083151502179055507f85aa0733b3fb7eb6446d3678b2b764111c325bbfbc9f61b3c5e82fdd84b48cbe81604051808273ffffffffffffffffffffffffffffffffffffffff1673ffffffffffffffffffffffffffffffffffffffff16815260200191505060405180910390a150565b61167f81610f39565b156116d5576040517f08c379a0000000000000000000000000000000000000000000000000000000008152600401808060200182810382526026815260200180611e1b6026913960400191505060405180910390fd5b6001600360008373ffffffffffffffffffffffffffffffffffffffff1673ffffffffffffffffffffffffffffffffffffffff16815260200190815260200160002060006101000a81548160ff0219169083151502179055507f53e5bd3bd4e32e2ff00492ad5cd171f1fe8a68a71948a847ef5a69c17d9eece781604051808273ffffffffffffffffffffffffffffffffffffffff1673ffffffffffffffffffffffffffffffffffffffff16815260200191505060405180910390a150565b600360003373ffffffffffffffffffffffffffffffffffffffff1673ffffffffffffffffffffffffffffffffffffffff16815260200190815260200160002060009054906101000a900460ff16611852576040517f08c379a00000000000000000000000000000000000000000000000000000000081526004018080602001828103825260208152602001807f53656e646572206973206e6f742061206c69737465642063616e64696461746581525060200191505060405180910390fd5b600460008373ffffffffffffffffffffffffffffffffffffffff1673ffffffffffffffffffffffffffffffffffffffff16815260200190815260200160002060009054906101000a900460ff166118f4576040517f08c379a0000000000000000000000000000000000000000000000000000000008152600401808060200182810382526031815260200180611d526031913960400191505060405180910390fd5b6118fc611c47565b6040518060c001604052803373ffffffffffffffffffffffffffffffffffffffff1681526020018473ffffffffffffffffffffffffffffffffffffffff1681526020017fffffffffffffffffffffffffffffffffffffffffffffffffffffffffffffffff81526020016005548152602001838152602001600260ff1681525090507f0278a23d8cc9b35e5a0f92559447690fbbcd1ee49a581d7e8cf80b320da42d7e60055484604051808381526020018273ffffffffffffffffffffffffffffffffffffffff1673ffffffffffffffffffffffffffffffffffffffff1681526020019250505060405180910390a16000803373ffffffffffffffffffffffffffffffffffffffff1673ffffffffffffffffffffffffffffffffffffffff168152602001908152602001600020819080600181540180825580915050906001820390600052602060002090600602016000909192909190915060008201518160000160006101000a81548173ffffffffffffffffffffffffffffffffffffffff021916908373ffffffffffffffffffffffffffffffffffffffff16021790555060208201518160010160006101000a81548173ffffffffffffffffffffffffffffffffffffffff021916908373ffffffffffffffffffffffffffffffffffffffff16021790555060408201518160020155606082015181600301556080820151816004019080519060200190611b12929190611cac565b5060a08201518160050160006101000a81548160ff021916908360ff1602179055505050508060016000600554815260200190815260200160002060008201518160000160006101000a81548173ffffffffffffffffffffffffffffffffffffffff021916908373ffffffffffffffffffffffffffffffffffffffff16021790555060208201518160010160006101000a81548173ffffffffffffffffffffffffffffffffffffffff021916908373ffffffffffffffffffffffffffffffffffffffff16021790555060408201518160020155606082015181600301556080820151816004019080519060200190611c0b929190611cac565b5060a08201518160050160006101000a81548160ff021916908360ff160217905550905050600560008154809291906001019190505550505050565b6040518060c00160405280600073ffffffffffffffffffffffffffffffffffffffff168152602001600073ffffffffffffffffffffffffffffffffffffffff168152602001600081526020016000815260200160608152602001600060ff1681525090565b828054600181600116156101000203166002900490600052602060002090601f016020900481019282601f10611ced57805160ff1916838001178555611d1b565b82800160010185558215611d1b579182015b82811115611d1a578251825591602001919060010190611cff565b5b509050611d289190611d2c565b5090565b611d4e91905b80821115611d4a576000816000905550600101611d32565b5090565b9056fe566572696679696e6720696e737469747574696f6e206973206e6f742061206c697374656420696e737469747574696f6e53656e64657220646f6573206e6f7420686176652076696577696e672072696768747353656e64657220646f6573206e6f74206861766520766572696679696e672072696768747353656e646572206973206e6f742061206c697374656420696e737469747574696f6e53656e646572206973206e6f74207468652063616e646964617465206f662073706563696669656420636c61696d4163636f756e74206861732070726576696f75736c79206265656e20726567697374657265644f6e6c792070656e64696e6720636c61696d732063616e2062652061737369676e65642061206e65772073636f7265a265627a7a72315820b27364c81191f5c8900b1bf23bc8393318b5eb69118c9704770653e014e32b7b64736f6c63430005100032",
  "source": "pragma solidity ^0.5.0;\n\ncontract Credential {\n    \n    mapping(address => claim[]) candidate_claim_records;\n    mapping(uint256 => claim) public claim_records;\n    mapping(uint256 => mapping(address => bool)) permission_records; // Claim Id ==> Third Party's Address => Bool of permission given\n\n    mapping(address => bool) public candidate_pool;\n    mapping(address => bool) public institution_pool;\n\n    uint256 claim_counter = 0;\n\n    struct claim {\n        address candidate;\n        address verifier;\n        int256 score;\n        uint256 id;\n        string content; // points to firebase database\n        uint8 status; // 0 is false, 1 is true, 2 is pending, 3 for revoke status?\n    }\n    \n    event claimCreated(uint256 claimId, address verifier);\n    event candidateListed (address candidate);\n    event institutionListed (address institution);\n\n    function recordExists(address _check) view public returns(bool) {\n        bool result = false;\n        if(candidate_pool[_check] || institution_pool[_check]) {\n            result = true;\n        } \n        return result;\n    }\n\n\n    function listCandidate(address candidate) public {\n        if (recordExists(candidate)){\n            revert(\"Account has previously been registered\");\n        } else {\n        candidate_pool[candidate] = true;\n        emit candidateListed(candidate);\n        }\n    }\n    \n    function listInstitution(address institution) public {\n        if (recordExists(institution)){\n            revert(\"Account has previously been registered\");\n        } else {\n        institution_pool[institution] = true;\n        emit institutionListed(institution);\n    }\n    }\n\n    function createClaim(address verifying_institution, string memory details) public {\n        require(candidate_pool[msg.sender], \"Sender is not a listed candidate\");\n        require(institution_pool[verifying_institution], \"Verifying institution is not a listed institution\");\n\n        // Create a claim instance\n        claim memory newClaim = claim(\n            msg.sender,\n            verifying_institution,\n            -1, // no score assigned yet\n            claim_counter,\n            details, // populate claims with details (string)\n            2 // pending\n        );\n\n        // when they call this, then it sends to a verifier\n        // Add event to listen to this --> allows for notification of verifier\n        emit claimCreated(claim_counter, verifying_institution);\n        \n        // Add to candidate_claim_records\n        candidate_claim_records[msg.sender].push(newClaim);\n\n        // claim_records\n        claim_records[claim_counter] = newClaim;\n        claim_counter++;\n    }\n\n    /*\n    function verify_claim(uint256 claimid) public {\n        // won't update on blockchain\n        // returns status\n        // return pointer of claim?\n    }\n    */\n\n    function do_score(uint256 claimId, int256 score, uint8 status) public {\n        require(institution_pool[msg.sender], \"Sender is not a listed institution\");\n        require(claim_records[claimId].score == -1, \"Claim already assigned a score\");\n        require(claim_records[claimId].status == 2, \"Only pending claims can be assigned a new score\");\n        require(claim_records[claimId].verifier == msg.sender, \"Sender does not have verifying rights\");\n        \n        //question: what does the do_score fn have to do with permission_records (abit confused here :D)\n\n         // update score\n        claim_records[claimId].score = score; \n        // update status\n        claim_records[claimId].status = status;\n        // logic to determine score and status to be done in vue?\n    }\n\n    \n\n    function revoke(uint256 claim_id) public {\n        require(institution_pool[msg.sender], \"Sender is not a listed institution\");\n        require(claim_records[claim_id].verifier == msg.sender, \"Sender does not have verifying rights\");\n        \n        //change status to revoke claim validity\n        claim_records[claim_id].status = 3; // 3 for revoke status\n    }\n\n    function givePermission(address thirdParty, uint256 claim_id) public {\n        require(candidate_pool[msg.sender], \"Sender is not in candidate pool\");\n        require(claim_records[claim_id].candidate == msg.sender, \"Sender is not the candidate of specified claim\");\n        require(institution_pool[thirdParty], \"Sender is not a listed institution\");\n\n\n        permission_records[claim_id][thirdParty] = true;\n    }\n\n    function viewClaim(uint256 claim_id) public view returns(string memory){\n        require(claim_records[claim_id].candidate == msg.sender || claim_records[claim_id].verifier == msg.sender || permission_records[claim_id][msg.sender],\n        \"Sender does not have viewing rights\"); //Only the owner/verifier/allowed third-party can view the claim\n        return(claim_records[claim_id].content);\n        \n        //View claim --> Returns JSON?\n    }\n\n\n    //ADDITIONAL GETTERS TO SUPPORT VUE APP\n    function getClaimId() view public returns (uint256) {\n        // returns current claim counter\n        return claim_counter-1;\n    }\n    function getStatus(uint256 claim_id) view public returns (uint8) {\n        require(claim_records[claim_id].candidate == msg.sender || claim_records[claim_id].verifier == msg.sender || permission_records[claim_id][msg.sender],\n        \"Sender does not have viewing rights\"); //Only the owner/verifier/allowed third-party can view the claim\n        return claim_records[claim_id].status;\n    }\n    function getScore(uint256 claim_id) view public returns (int256) {\n        require(claim_records[claim_id].candidate == msg.sender || claim_records[claim_id].verifier == msg.sender || permission_records[claim_id][msg.sender],\n        \"Sender does not have viewing rights\"); //Only the owner/verifier/allowed third-party can view the claim\n        return claim_records[claim_id].score;\n    }\n}\n",
  "sourcePath": "/Users/darylkoh/Downloads/seevee/truffle/contracts/Credential.sol",
  "compiler": {
    "name": "solc",
    "version": "0.5.16+commit.9c3226ce.Emscripten.clang"
  },
  "schemaVersion": "3.3.3",
  "updatedAt": "2021-03-31T09:03:36.556Z",
  "networkType": "ethereum",
  "devdoc": {
    "methods": {}
  },
  "userdoc": {
    "methods": {}
  }
}