{
  "contractName": "Dummy",
  "abi": [
    {
      "inputs": [],
      "payable": false,
      "stateMutability": "nonpayable",
      "type": "constructor"
    },
    {
      "constant": true,
      "inputs": [],
      "name": "counter",
      "outputs": [
        {
          "internalType": "uint256",
          "name": "",
          "type": "uint256"
        }
      ],
      "payable": false,
      "stateMutability": "view",
      "type": "function"
    },
    {
      "constant": true,
      "inputs": [],
      "name": "show",
      "outputs": [
        {
          "internalType": "uint256",
          "name": "",
          "type": "uint256"
        }
      ],
      "payable": false,
      "stateMutability": "view",
      "type": "function"
    },
    {
      "constant": false,
      "inputs": [],
      "name": "incr",
      "outputs": [],
      "payable": false,
      "stateMutability": "nonpayable",
      "type": "function"
    },
    {
      "constant": false,
      "inputs": [],
      "name": "decr",
      "outputs": [],
      "payable": false,
      "stateMutability": "nonpayable",
      "type": "function"
    }
  ],
  "bytecode": "0x608060405234801561001057600080fd5b506000808190555060fb806100266000396000f3fe6080604052348015600f57600080fd5b506004361060465760003560e01c8063119fbbd414604b57806361bc221a146053578063cc80f6f314606f578063d9f2ac8a14608b575b600080fd5b60516093565b005b605960a5565b6040518082815260200191505060405180910390f35b607560ab565b6040518082815260200191505060405180910390f35b609160b4565b005b60016000808282540192505081905550565b60005481565b60008054905090565b6001600080828254039250508190555056fea265627a7a7231582008b166fe0afc3e23b63ca62f98a69f4b31f16e48907efe0446c33ff4b491ce6f64736f6c63430005100032",
  "source": "pragma solidity ^0.5.0;\n\n// Just a test to see if we can work with multiple deployed contracts in drizzle.\n\ncontract Dummy {\n    uint public counter;\n\n    constructor() public {\n        counter = 0;\n    }\n\n    function show() public view returns(uint) {\n        return counter;\n    }\n\n    function incr() public {\n        counter += 1;\n    }\n\n    function decr() public {\n        counter -= 1;\n    }\n\n\n}\n\n",
  "sourcePath": "/Users/darylkoh/Downloads/seevee/truffle/contracts/Dummy.sol",
  "compiler": {
    "name": "solc",
    "version": "0.5.16+commit.9c3226ce.Emscripten.clang"
  },
  "schemaVersion": "3.3.3",
  "updatedAt": "2021-03-27T04:18:07.779Z",
  "networkType": "ethereum",
  "devdoc": {
    "methods": {}
  },
  "userdoc": {
    "methods": {}
  }
}